{
  "contractName": "Flashloan",
  "abi": [
    {
      "inputs": [
        {
          "internalType": "address",
          "name": "kyberAddress",
          "type": "address"
        },
        {
          "internalType": "address",
          "name": "curvefiAddress",
          "type": "address"
        },
        {
          "internalType": "address",
          "name": "uniswapAddress",
          "type": "address"
        },
        {
          "internalType": "address",
          "name": "wethAddress",
          "type": "address"
        },
        {
          "internalType": "address",
          "name": "beneficiaryAddress",
          "type": "address"
        }
      ],
      "payable": false,
      "stateMutability": "nonpayable",
      "type": "constructor"
    },
    {
      "anonymous": false,
      "inputs": [
        {
          "indexed": true,
          "internalType": "uint256",
          "name": "profit",
          "type": "uint256"
        },
        {
          "indexed": true,
          "internalType": "uint256",
          "name": "date",
          "type": "uint256"
        }
      ],
      "name": "NewArbitrage",
      "type": "event"
    },
    {
      "payable": true,
      "stateMutability": "payable",
      "type": "fallback"
    },
    {
      "constant": false,
      "inputs": [
        {
          "internalType": "address",
          "name": "sender",
          "type": "address"
        },
        {
          "components": [
            {
              "internalType": "address",
              "name": "owner",
              "type": "address"
            },
            {
              "internalType": "uint256",
              "name": "number",
              "type": "uint256"
            }
          ],
          "internalType": "struct Account.Info",
          "name": "account",
          "type": "tuple"
        },
        {
          "internalType": "bytes",
          "name": "data",
          "type": "bytes"
        }
      ],
      "name": "callFunction",
      "outputs": [],
      "payable": false,
      "stateMutability": "nonpayable",
      "type": "function"
    },
    {
      "constant": false,
      "inputs": [
        {
          "internalType": "address",
          "name": "_solo",
          "type": "address"
        },
        {
          "internalType": "address",
          "name": "_tokenFrom",
          "type": "address"
        },
        {
          "internalType": "address",
          "name": "_tokenTo",
          "type": "address"
        },
        {
          "internalType": "uint256",
          "name": "_amount",
          "type": "uint256"
        },
        {
          "internalType": "enum Flashloan.Direction",
          "name": "_direction",
          "type": "uint8"
        }
      ],
      "name": "initateFlashLoan",
      "outputs": [],
      "payable": false,
      "stateMutability": "nonpayable",
      "type": "function"
    },
    {
      "constant": false,
      "inputs": [
        {
          "internalType": "address",
          "name": "_solo",
          "type": "address"
        },
        {
          "internalType": "address",
          "name": "_tokenFrom",
          "type": "address"
        },
        {
          "internalType": "address",
          "name": "_tokenTo",
          "type": "address"
        },
        {
          "internalType": "uint256",
          "name": "_amount",
          "type": "uint256"
        },
        {
          "internalType": "enum Flashloan.Direction",
          "name": "_direction",
          "type": "uint8"
        }
      ],
      "name": "initateFlashLoan1",
      "outputs": [],
      "payable": false,
      "stateMutability": "nonpayable",
      "type": "function"
    }
  ],
  "bytecode": "0x60806040523480156200001157600080fd5b50604051620028533803806200285383398181016040526200003791908101906200019d565b84600160006101000a81548173ffffffffffffffffffffffffffffffffffffffff021916908373ffffffffffffffffffffffffffffffffffffffff160217905550836000806101000a81548173ffffffffffffffffffffffffffffffffffffffff021916908373ffffffffffffffffffffffffffffffffffffffff16021790555082600260006101000a81548173ffffffffffffffffffffffffffffffffffffffff021916908373ffffffffffffffffffffffffffffffffffffffff16021790555081600360006101000a81548173ffffffffffffffffffffffffffffffffffffffff021916908373ffffffffffffffffffffffffffffffffffffffff16021790555080600460006101000a81548173ffffffffffffffffffffffffffffffffffffffff021916908373ffffffffffffffffffffffffffffffffffffffff16021790555050505050506200026d565b600081519050620001978162000253565b92915050565b600080600080600060a08688031215620001b657600080fd5b6000620001c68882890162000186565b9550506020620001d98882890162000186565b9450506040620001ec8882890162000186565b9350506060620001ff8882890162000186565b9250506080620002128882890162000186565b9150509295509295909350565b60006200022c8262000233565b9050919050565b600073ffffffffffffffffffffffffffffffffffffffff82169050919050565b6200025e816200021f565b81146200026a57600080fd5b50565b6125d6806200027d6000396000f3fe6080604052600436106100345760003560e01c80638b418713146100365780638f10ba921461005f578063e5d5978514610088575b005b34801561004257600080fd5b5061005d600480360361005891908101906118e6565b6100b1565b005b34801561006b57600080fd5b506100866004803603610081919081019061186f565b610b56565b005b34801561009457600080fd5b506100af60048036036100aa919081019061186f565b610d5b565b005b6100b9611465565b818060200190516100cd91908101906119b7565b905060008160000151905060008173ffffffffffffffffffffffffffffffffffffffff166370a08231306040518263ffffffff1660e01b81526004016101139190611fcf565b60206040518083038186803b15801561012b57600080fd5b505afa15801561013f573d6000803e3d6000fd5b505050506040513d601f19601f8201168201806040525061016391908101906119e0565b9050600061012c420190508273ffffffffffffffffffffffffffffffffffffffff1663095ea7b3600260009054906101000a900473ffffffffffffffffffffffffffffffffffffffff16846040518363ffffffff1660e01b81526004016101cb929190611fea565b602060405180830381600087803b1580156101e557600080fd5b505af11580156101f9573d6000803e3d6000fd5b505050506040513d601f19601f8201168201806040525061021d919081019061198e565b61025c576040517f08c379a0000000000000000000000000000000000000000000000000000000008152600401610253906120cf565b60405180910390fd5b6060600260405190808252806020026020018201604052801561028e5781602001602082028038833980820191505090505b509050838160008151811061029f57fe5b602002602001019073ffffffffffffffffffffffffffffffffffffffff16908173ffffffffffffffffffffffffffffffffffffffff1681525050600360009054906101000a900473ffffffffffffffffffffffffffffffffffffffff168160018151811061030957fe5b602002602001019073ffffffffffffffffffffffffffffffffffffffff16908173ffffffffffffffffffffffffffffffffffffffff16815250506060600260009054906101000a900473ffffffffffffffffffffffffffffffffffffffff1673ffffffffffffffffffffffffffffffffffffffff1663d06ca61f85846040518363ffffffff1660e01b81526004016103a2929190612165565b60006040518083038186803b1580156103ba57600080fd5b505afa1580156103ce573d6000803e3d6000fd5b505050506040513d6000823e3d601f19601f820116820180604052506103f7919081019061194d565b9050600260009054906101000a900473ffffffffffffffffffffffffffffffffffffffff1673ffffffffffffffffffffffffffffffffffffffff166318cbafe5858360018151811061044557fe5b60200260200101518530886040518663ffffffff1660e01b81526004016104709594939291906121e1565b600060405180830381600087803b15801561048a57600080fd5b505af115801561049e573d6000803e3d6000fd5b505050506040513d6000823e3d601f19601f820116820180604052506104c7919081019061194d565b50600086602001519050606060026040519080825280602002602001820160405280156105035781602001602082028038833980820191505090505b509050600360009054906101000a900473ffffffffffffffffffffffffffffffffffffffff168160008151811061053657fe5b602002602001019073ffffffffffffffffffffffffffffffffffffffff16908173ffffffffffffffffffffffffffffffffffffffff1681525050818160018151811061057e57fe5b602002602001019073ffffffffffffffffffffffffffffffffffffffff16908173ffffffffffffffffffffffffffffffffffffffff16815250506060600260009054906101000a900473ffffffffffffffffffffffffffffffffffffffff1673ffffffffffffffffffffffffffffffffffffffff1663d06ca61f47846040518363ffffffff1660e01b8152600401610617929190612165565b60006040518083038186803b15801561062f57600080fd5b505afa158015610643573d6000803e3d6000fd5b505050506040513d6000823e3d601f19601f8201168201806040525061066c919081019061194d565b9050600260009054906101000a900473ffffffffffffffffffffffffffffffffffffffff1673ffffffffffffffffffffffffffffffffffffffff16637ff36ab547836001815181106106ba57fe5b602002602001015185308b6040518663ffffffff1660e01b81526004016106e49493929190612195565b6000604051808303818588803b1580156106fd57600080fd5b505af1158015610711573d6000803e3d6000fd5b50505050506040513d6000823e3d601f19601f8201168201806040525061073b919081019061194d565b5060008373ffffffffffffffffffffffffffffffffffffffff166370a08231306040518263ffffffff1660e01b81526004016107779190611fcf565b60206040518083038186803b15801561078f57600080fd5b505afa1580156107a3573d6000803e3d6000fd5b505050506040513d601f19601f820116820180604052506107c791908101906119e0565b90508373ffffffffffffffffffffffffffffffffffffffff1663095ea7b36000809054906101000a900473ffffffffffffffffffffffffffffffffffffffff16836040518363ffffffff1660e01b8152600401610825929190611fea565b602060405180830381600087803b15801561083f57600080fd5b505af1158015610853573d6000803e3d6000fd5b505050506040513d601f19601f82011682018060405250610877919081019061198e565b6108b6576040517f08c379a00000000000000000000000000000000000000000000000000000000081526004016108ad906120cf565b60405180910390fd5b6000809054906101000a900473ffffffffffffffffffffffffffffffffffffffff1673ffffffffffffffffffffffffffffffffffffffff16633df02124600160008460006040518563ffffffff1660e01b8152600401610919949392919061204a565b600060405180830381600087803b15801561093357600080fd5b505af1158015610947573d6000803e3d6000fd5b5050505060008973ffffffffffffffffffffffffffffffffffffffff166370a08231306040518263ffffffff1660e01b81526004016109869190611fcf565b60206040518083038186803b15801561099e57600080fd5b505afa1580156109b2573d6000803e3d6000fd5b505050506040513d601f19601f820116820180604052506109d691908101906119e0565b90508a606001518111610a1e576040517f08c379a0000000000000000000000000000000000000000000000000000000008152600401610a15906120af565b60405180910390fd5b60008b60600151820390508a73ffffffffffffffffffffffffffffffffffffffff1663a9059cbb600460009054906101000a900473ffffffffffffffffffffffffffffffffffffffff16836040518363ffffffff1660e01b8152600401610a86929190611fea565b602060405180830381600087803b158015610aa057600080fd5b505af1158015610ab4573d6000803e3d6000fd5b505050506040513d601f19601f82011682018060405250610ad8919081019061198e565b610b17576040517f08c379a0000000000000000000000000000000000000000000000000000000008152600401610b0e9061210f565b60405180910390fd5b42817f66668f78d5c3d3047f53675c87d17d41b32abb8eba3ca51b109db15bc29ece3460405160405180910390a3505050505050505050505050505050565b6000610b628686610fec565b90506000610b6f8461119e565b90508573ffffffffffffffffffffffffffffffffffffffff1663095ea7b388836040518363ffffffff1660e01b8152600401610bac929190611fea565b602060405180830381600087803b158015610bc657600080fd5b505af1158015610bda573d6000803e3d6000fd5b505050506040513d601f19601f82011682018060405250610bfe919081019061198e565b5060606002604051908082528060200260200182016040528015610c3c57816020015b610c296114b9565b815260200190600190039081610c215790505b509050610c4983866111bb565b81600081518110610c5657fe5b6020026020010181905250610c6b8383611274565b81600181518110610c7857fe5b602002602001018190525060606001604051908082528060200260200182016040528015610cc057816020015b610cad611525565b815260200190600190039081610ca55790505b509050610ccb61132d565b81600081518110610cd857fe5b60200260200101819052508873ffffffffffffffffffffffffffffffffffffffff1663a67a6a4582846040518363ffffffff1660e01b8152600401610d1e929190612013565b600060405180830381600087803b158015610d3857600080fd5b505af1158015610d4c573d6000803e3d6000fd5b50505050505050505050505050565b6000610d678686610fec565b90506000610d748461119e565b90508573ffffffffffffffffffffffffffffffffffffffff1663095ea7b388836040518363ffffffff1660e01b8152600401610db1929190611fea565b602060405180830381600087803b158015610dcb57600080fd5b505af1158015610ddf573d6000803e3d6000fd5b505050506040513d601f19601f82011682018060405250610e03919081019061198e565b5060606003604051908082528060200260200182016040528015610e4157816020015b610e2e6114b9565b815260200190600190039081610e265790505b509050610e4e83866111bb565b81600081518110610e5b57fe5b6020026020010181905250610eda60405180608001604052808973ffffffffffffffffffffffffffffffffffffffff1681526020018873ffffffffffffffffffffffffffffffffffffffff16815260200187815260200184815250604051602001610ec6919061212f565b604051602081830303815290604052611366565b81600181518110610ee757fe5b6020026020010181905250610efc8383611274565b81600281518110610f0957fe5b602002602001018190525060606001604051908082528060200260200182016040528015610f5157816020015b610f3e611525565b815260200190600190039081610f365790505b509050610f5c61132d565b81600081518110610f6957fe5b60200260200101819052508873ffffffffffffffffffffffffffffffffffffffff1663a67a6a4582846040518363ffffffff1660e01b8152600401610faf929190612013565b600060405180830381600087803b158015610fc957600080fd5b505af1158015610fdd573d6000803e3d6000fd5b50505050505050505050505050565b60008083905060008173ffffffffffffffffffffffffffffffffffffffff1663295c39a56040518163ffffffff1660e01b815260040160206040518083038186803b15801561103a57600080fd5b505afa15801561104e573d6000803e3d6000fd5b505050506040513d601f19601f8201168201806040525061107291908101906119e0565b9050600080600090505b8281101561115c578373ffffffffffffffffffffffffffffffffffffffff1663062bd3e9826040518263ffffffff1660e01b81526004016110bd919061214a565b60206040518083038186803b1580156110d557600080fd5b505afa1580156110e9573d6000803e3d6000fd5b505050506040513d601f19601f8201168201806040525061110d9190810190611846565b91508573ffffffffffffffffffffffffffffffffffffffff168273ffffffffffffffffffffffffffffffffffffffff16141561114f5780945050505050611198565b808060010191505061107c565b506040517f08c379a000000000000000000000000000000000000000000000000000000000815260040161118f906120ef565b60405180910390fd5b92915050565b60006111b460028361141090919063ffffffff16565b9050919050565b6111c3611555565b604051806101000160405280600160088111156111dc57fe5b81526020016000815260200160405180608001604052806000151581526020016000600181111561120957fe5b81526020016000600181111561121b57fe5b8152602001858152508152602001848152602001600081526020013073ffffffffffffffffffffffffffffffffffffffff1681526020016000815260200160405180602001604052806000815250815250905092915050565b61127c611555565b6040518061010001604052806000600881111561129557fe5b8152602001600081526020016040518060800160405280600115158152602001600060018111156112c257fe5b8152602001600060018111156112d457fe5b8152602001858152508152602001848152602001600081526020013073ffffffffffffffffffffffffffffffffffffffff1681526020016000815260200160405180602001604052806000815250815250905092915050565b6113356115c1565b60405180604001604052803073ffffffffffffffffffffffffffffffffffffffff1681526020016001815250905090565b61136e611555565b60405180610100016040528060088081111561138657fe5b8152602001600081526020016040518060800160405280600015158152602001600060018111156113b357fe5b8152602001600060018111156113c557fe5b81526020016000815250815260200160008152602001600081526020013073ffffffffffffffffffffffffffffffffffffffff16815260200160008152602001838152509050919050565b60008082840190508381101561145b576040517f08c379a00000000000000000000000000000000000000000000000000000000081526004016114529061208f565b60405180910390fd5b8091505092915050565b6040518060800160405280600073ffffffffffffffffffffffffffffffffffffffff168152602001600073ffffffffffffffffffffffffffffffffffffffff16815260200160008152602001600081525090565b604051806101000160405280600060088111156114d257fe5b8152602001600081526020016114e66115f1565b81526020016000815260200160008152602001600073ffffffffffffffffffffffffffffffffffffffff16815260200160008152602001606081525090565b6040518060400160405280600073ffffffffffffffffffffffffffffffffffffffff168152602001600081525090565b6040518061010001604052806000600881111561156e57fe5b8152602001600081526020016115826115f1565b81526020016000815260200160008152602001600073ffffffffffffffffffffffffffffffffffffffff16815260200160008152602001606081525090565b6040518060400160405280600073ffffffffffffffffffffffffffffffffffffffff168152602001600081525090565b60405180608001604052806000151581526020016000600181111561161257fe5b81526020016000600181111561162457fe5b8152602001600081525090565b6000813590506116408161253e565b92915050565b6000815190506116558161253e565b92915050565b600082601f83011261166c57600080fd5b815161167f61167a82612268565b61223b565b915081818352602084019350602081019050838560208402820111156116a457600080fd5b60005b838110156116d457816116ba8882611831565b8452602084019350602083019250506001810190506116a7565b5050505092915050565b6000815190506116ed81612555565b92915050565b600082601f83011261170457600080fd5b813561171761171282612290565b61223b565b9150808252602083016020830185838301111561173357600080fd5b61173e8382846124c4565b50505092915050565b6000813590506117568161256c565b92915050565b60006080828403121561176e57600080fd5b611778608061223b565b9050600061178884828501611646565b600083015250602061179c84828501611646565b60208301525060406117b084828501611831565b60408301525060606117c484828501611831565b60608301525092915050565b6000604082840312156117e257600080fd5b6117ec604061223b565b905060006117fc84828501611631565b60008301525060206118108482850161181c565b60208301525092915050565b60008135905061182b8161257c565b92915050565b6000815190506118408161257c565b92915050565b60006020828403121561185857600080fd5b600061186684828501611646565b91505092915050565b600080600080600060a0868803121561188757600080fd5b600061189588828901611631565b95505060206118a688828901611631565b94505060406118b788828901611631565b93505060606118c88882890161181c565b92505060806118d988828901611747565b9150509295509295909350565b6000806000608084860312156118fb57600080fd5b600061190986828701611631565b935050602061191a868287016117d0565b925050606084013567ffffffffffffffff81111561193757600080fd5b611943868287016116f3565b9150509250925092565b60006020828403121561195f57600080fd5b600082015167ffffffffffffffff81111561197957600080fd5b6119858482850161165b565b91505092915050565b6000602082840312156119a057600080fd5b60006119ae848285016116de565b91505092915050565b6000608082840312156119c957600080fd5b60006119d78482850161175c565b91505092915050565b6000602082840312156119f257600080fd5b6000611a0084828501611831565b91505092915050565b6000611a158383611a5c565b60208301905092915050565b6000611a2d8383611e25565b905092915050565b6000611a418383611f82565b60408301905092915050565b611a5681612422565b82525050565b611a6581612394565b82525050565b611a7481612394565b82525050565b6000611a85826122ec565b611a8f818561233f565b9350611a9a836122bc565b8060005b83811015611acb578151611ab28882611a09565b9750611abd83612318565b925050600181019050611a9e565b5085935050505092915050565b6000611ae3826122f7565b611aed8185612350565b935083602082028501611aff856122cc565b8060005b85811015611b3b5784840389528151611b1c8582611a21565b9450611b2783612325565b925060208a01995050600181019050611b03565b50829750879550505050505092915050565b6000611b5882612302565b611b628185612361565b9350611b6d836122dc565b8060005b83811015611b9e578151611b858882611a35565b9750611b9083612332565b925050600181019050611b71565b5085935050505092915050565b611bb4816123a6565b82525050565b6000611bc58261230d565b611bcf8185612372565b9350611bdf8185602086016124d3565b611be881612506565b840191505092915050565b611bfc81612434565b82525050565b611c0b81612446565b82525050565b611c1a81612458565b82525050565b611c298161246a565b82525050565b611c388161247c565b82525050565b611c478161248e565b82525050565b6000611c5a601b83612383565b91507f536166654d6174683a206164646974696f6e206f766572666c6f7700000000006000830152602082019050919050565b6000611c9a602483612383565b91507f4e6f7420656e6f7567682066756e647320746f2072657061792064796478206c60008301527f6f616e21000000000000000000000000000000000000000000000000000000006020830152604082019050919050565b6000611d00602583612383565b91507f436f756c64206e6f7420617070726f766520726573657276652061737365742060008301527f73656c6c210000000000000000000000000000000000000000000000000000006020830152604082019050919050565b6000611d66602483612383565b91507f4e6f206d61726b6574496420666f756e6420666f722070726f7669646564207460008301527f6f6b656e000000000000000000000000000000000000000000000000000000006020830152604082019050919050565b6000611dcc602383612383565b91507f436f756c64206e6f74207472616e73666572206261636b207468652070726f6660008301527f69742100000000000000000000000000000000000000000000000000000000006020830152604082019050919050565b600061016083016000830151611e3e6000860182611bf3565b506020830151611e516020860182611fb1565b506040830151611e646040860182611f2d565b506060830151611e7760c0860182611fb1565b506080830151611e8a60e0860182611fb1565b5060a0830151611e9e610100860182611a5c565b5060c0830151611eb2610120860182611fb1565b5060e0830151848203610140860152611ecb8282611bba565b9150508091505092915050565b608082016000820151611eee6000850182611a5c565b506020820151611f016020850182611a5c565b506040820151611f146040850182611fb1565b506060820151611f276060850182611fb1565b50505050565b608082016000820151611f436000850182611bab565b506020820151611f566020850182611c02565b506040820151611f696040850182611c11565b506060820151611f7c6060850182611fb1565b50505050565b604082016000820151611f986000850182611a5c565b506020820151611fab6020850182611fb1565b50505050565b611fba81612418565b82525050565b611fc981612418565b82525050565b6000602082019050611fe46000830184611a4d565b92915050565b6000604082019050611fff6000830185611a6b565b61200c6020830184611fc0565b9392505050565b6000604082019050818103600083015261202d8185611b4d565b905081810360208301526120418184611ad8565b90509392505050565b600060808201905061205f6000830187611c3e565b61206c6020830186611c20565b6120796040830185611fc0565b6120866060830184611c2f565b95945050505050565b600060208201905081810360008301526120a881611c4d565b9050919050565b600060208201905081810360008301526120c881611c8d565b9050919050565b600060208201905081810360008301526120e881611cf3565b9050919050565b6000602082019050818103600083015261210881611d59565b9050919050565b6000602082019050818103600083015261212881611dbf565b9050919050565b60006080820190506121446000830184611ed8565b92915050565b600060208201905061215f6000830184611fc0565b92915050565b600060408201905061217a6000830185611fc0565b818103602083015261218c8184611a7a565b90509392505050565b60006080820190506121aa6000830187611fc0565b81810360208301526121bc8186611a7a565b90506121cb6040830185611a4d565b6121d86060830184611fc0565b95945050505050565b600060a0820190506121f66000830188611fc0565b6122036020830187611fc0565b81810360408301526122158186611a7a565b90506122246060830185611a4d565b6122316080830184611fc0565b9695505050505050565b6000604051905081810181811067ffffffffffffffff8211171561225e57600080fd5b8060405250919050565b600067ffffffffffffffff82111561227f57600080fd5b602082029050602081019050919050565b600067ffffffffffffffff8211156122a757600080fd5b601f19601f8301169050602081019050919050565b6000819050602082019050919050565b6000819050602082019050919050565b6000819050602082019050919050565b600081519050919050565b600081519050919050565b600081519050919050565b600081519050919050565b6000602082019050919050565b6000602082019050919050565b6000602082019050919050565b600082825260208201905092915050565b600082825260208201905092915050565b600082825260208201905092915050565b600082825260208201905092915050565b600082825260208201905092915050565b600061239f826123f8565b9050919050565b60008115159050919050565b60008190506123c082612517565b919050565b60008190506123d382612524565b919050565b60008190506123e682612531565b919050565b600081600f0b9050919050565b600073ffffffffffffffffffffffffffffffffffffffff82169050919050565b6000819050919050565b600061242d826124a0565b9050919050565b600061243f826123b2565b9050919050565b6000612451826123c5565b9050919050565b6000612463826123d8565b9050919050565b6000612475826123eb565b9050919050565b600061248782612418565b9050919050565b6000612499826123eb565b9050919050565b60006124ab826124b2565b9050919050565b60006124bd826123f8565b9050919050565b82818337600083830152505050565b60005b838110156124f15780820151818401526020810190506124d6565b83811115612500576000848401525b50505050565b6000601f19601f8301169050919050565b6009811061252157fe5b50565b6002811061252e57fe5b50565b6002811061253b57fe5b50565b61254781612394565b811461255257600080fd5b50565b61255e816123a6565b811461256957600080fd5b50565b6002811061257957600080fd5b50565b61258581612418565b811461259057600080fd5b5056fea365627a7a7231582030048cfc0c7226b7d89408a3e4a126cf4acc7b5d090028bb4b00265162205e6c6c6578706572696d656e74616cf564736f6c63430005100040",
  "source": "// SPDX-License-Identifier: ISC\npragma solidity ^0.5.0;\npragma experimental ABIEncoderV2;\n\nimport \"@studydefi/money-legos/dydx/contracts/DydxFlashloanBase.sol\";\nimport \"@studydefi/money-legos/dydx/contracts/ICallee.sol\";\nimport \"@studydefi/money-legos/curvefi/contracts/ICurveFiCurve.sol\";\nimport {KyberNetworkProxy as IKyberNetworkProxy} from \"@studydefi/money-legos/kyber/contracts/KyberNetworkProxy.sol\";\n\nimport \"@openzeppelin/contracts/token/ERC20/IERC20.sol\";\nimport \"./IUniswapV2Router02.sol\";\nimport \"./IWeth.sol\";\n\ncontract Flashloan is ICallee, DydxFlashloanBase {\n  enum Direction {KyberToUniswap, UniswapToKyber}\n\n  struct ArbInfo {\n    address from;\n    address to;\n    uint256 amount;\n    uint256 repayAmount;\n  }\n\n  event NewArbitrage(uint256 indexed profit, uint256 indexed date);\n\n  // events for debugging\n  // event GetMinOuts(uint256 indexed minOut1, uint256 indexed minOut2);\n\n  ICurveFiCurve curvefi;\n  IKyberNetworkProxy kyber;\n  IUniswapV2Router02 uniswap;\n  IWeth weth;\n  address beneficiary;\n  address constant KYBER_ETH_ADDRESS = 0xEeeeeEeeeEeEeeEeEeEeeEEEeeeeEeeeeeeeEEeE;\n\n  constructor(\n    address kyberAddress,\n    address curvefiAddress,\n    address uniswapAddress,\n    address wethAddress,\n    address beneficiaryAddress\n  ) public {\n    kyber = IKyberNetworkProxy(kyberAddress);\n    curvefi = ICurveFiCurve(curvefiAddress);\n    uniswap = IUniswapV2Router02(uniswapAddress);\n    weth = IWeth(wethAddress);\n    beneficiary = beneficiaryAddress;\n  }\n\n  // This is the function that will be called postLoan\n  // i.e. Encode the logic to handle your flashloaned funds here\n  function callFunction(\n    address sender,\n    Account.Info memory account,\n    bytes memory data\n  ) public {\n    ArbInfo memory arbInfo = abi.decode(data, (ArbInfo));\n\n    // fromToken to ETH\n    IERC20 fromToken = IERC20(arbInfo.from);\n    uint256 fromBalance = fromToken.balanceOf(address(this));\n    uint256 deadline = now + 300;\n\n    require(fromToken.approve(address(uniswap), fromBalance), \"Could not approve reserve asset sell!\");\n    address[] memory path = new address[](2);\n    path[0] = address(fromToken);\n    path[1] = address(weth);\n    uint256[] memory minOuts = uniswap.getAmountsOut(fromBalance, path);\n    uniswap.swapExactTokensForETH(fromBalance, minOuts[1], path, address(this), deadline);\n\n    // ETH to toToken\n    // Sell ETH to Uniswap\n    IERC20 toToken = IERC20(arbInfo.to);\n    address[] memory path2 = new address[](2);\n    path2[0] = address(weth);\n    path2[1] = address(toToken);\n\n    // https://uniswap.org/docs/v2/smart-contracts/library#getamountsout\n    // Given an input asset amount and an array of token addresses, calculates all subsequent maximum output token amounts\n    uint256[] memory minOuts2 = uniswap.getAmountsOut(address(this).balance, path2);\n\n    // https://uniswap.org/docs/v2/smart-contracts/router02/\n    // Swaps an exact amount of ETH for as many output tokens as possible, along the route determined by the path.\n    // The first element of path must be WETH, the last is the output token\n    uniswap.swapExactETHForTokens.value(address(this).balance)(minOuts2[1], path2, address(this), deadline);\n\n    uint256 toBalance = toToken.balanceOf(address(this));\n    require(toToken.approve(address(curvefi), toBalance), \"Could not approve reserve asset sell!\");\n    curvefi.exchange(1, 0, toBalance, 0);\n    // kyber.swapTokenToToken(toToken, toBalance, fromToken, 0);\n\n    uint256 finalFromTokenBalance = fromToken.balanceOf(address(this));\n    require(finalFromTokenBalance > arbInfo.repayAmount, \"Not enough funds to repay dydx loan!\");\n\n    uint256 profit = finalFromTokenBalance - arbInfo.repayAmount;\n    require(fromToken.transfer(beneficiary, profit), \"Could not transfer back the profit!\");\n\n    emit NewArbitrage(profit, now);\n  }\n\n  function initateFlashLoan(\n    address _solo,\n    address _tokenFrom,\n    address _tokenTo,\n    uint256 _amount,\n    Direction _direction\n  ) external {\n    // Get marketId from token address\n    uint256 marketId = _getMarketIdFromTokenAddress(_solo, _tokenFrom);\n\n    // Calculate repay amount (_amount + (2 wei))\n    // Approve transfer from\n    uint256 repayAmount = _getRepaymentAmountInternal(_amount);\n    IERC20(_tokenFrom).approve(_solo, repayAmount);\n\n    // 1. Withdraw $\n    // 2. Call callFunction(...)\n    // 3. Deposit back $\n    Actions.ActionArgs[] memory operations = new Actions.ActionArgs[](3);\n\n    operations[0] = _getWithdrawAction(marketId, _amount);\n    operations[1] = _getCallAction(\n      // Encode MyCustomData for callFunction\n      \n      abi.encode(ArbInfo({from: _tokenFrom, to: _tokenTo, amount: _amount, repayAmount: repayAmount}))\n    );\n    operations[2] = _getDepositAction(marketId, repayAmount);\n\n    Account.Info[] memory accountInfos = new Account.Info[](1);\n    accountInfos[0] = _getAccountInfo();\n\n    ISoloMargin(_solo).operate(accountInfos, operations);\n  }\n\n  function initateFlashLoan1(\n    address _solo,\n    address _tokenFrom,\n    address _tokenTo,\n    uint256 _amount,\n    Direction _direction\n  ) external {\n    // Get marketId from token address\n    uint256 marketId = _getMarketIdFromTokenAddress(_solo, _tokenFrom);\n\n    // Calculate repay amount (_amount + (2 wei))\n    // Approve transfer from\n    uint256 repayAmount = _getRepaymentAmountInternal(_amount);\n    IERC20(_tokenFrom).approve(_solo, repayAmount);\n\n    // 1. Withdraw $\n    // 2. Call callFunction(...)\n    // 3. Deposit back $\n    Actions.ActionArgs[] memory operations = new Actions.ActionArgs[](2);\n\n    operations[0] = _getWithdrawAction(marketId, _amount);\n    operations[1] = _getDepositAction(marketId, repayAmount);\n\n    Account.Info[] memory accountInfos = new Account.Info[](1);\n    accountInfos[0] = _getAccountInfo();\n\n    ISoloMargin(_solo).operate(accountInfos, operations);\n  }\n\n  // Add payable function to be able to receive ETH from Uniswap / Kyber\n  function() external payable {}\n}\n",
  "sourcePath": "/Volumes/Work/LMF/LMFGA/contracts/Flashloan.sol",
  "compiler": {
    "name": "solc",
    "version": "0.5.16+commit.9c3226ce.Emscripten.clang"
  },
  "schemaVersion": "3.2.3",
  "updatedAt": "2020-09-07T23:56:02.555Z",
  "networkType": "ethereum",
  "devdoc": {
    "methods": {}
  },
  "userdoc": {
    "methods": {}
  }
}