{
  "contractName": "TestableFlashloan",
  "abi": [
    {
      "inputs": [
        {
          "internalType": "address",
          "name": "kyberAddress",
          "type": "address"
        },
        {
          "internalType": "address",
          "name": "uniswapAddress",
          "type": "address"
        },
        {
          "internalType": "address",
          "name": "wethAddress",
          "type": "address"
        },
        {
          "internalType": "address",
          "name": "beneficiaryAddress",
          "type": "address"
        }
      ],
      "payable": false,
      "stateMutability": "nonpayable",
      "type": "constructor"
    },
    {
      "anonymous": false,
      "inputs": [
        {
          "indexed": true,
          "internalType": "uint256",
          "name": "balance",
          "type": "uint256"
        }
      ],
      "name": "GetBalanceDest",
      "type": "event"
    },
    {
      "anonymous": false,
      "inputs": [
        {
          "indexed": true,
          "internalType": "uint256",
          "name": "balance",
          "type": "uint256"
        }
      ],
      "name": "GetBalanceSrc",
      "type": "event"
    },
    {
      "anonymous": false,
      "inputs": [
        {
          "indexed": true,
          "internalType": "enum TestableFlashloan.Direction",
          "name": "direction",
          "type": "uint8"
        }
      ],
      "name": "GetDirection",
      "type": "event"
    },
    {
      "anonymous": false,
      "inputs": [
        {
          "indexed": true,
          "internalType": "uint256",
          "name": "balance",
          "type": "uint256"
        }
      ],
      "name": "GetFinalBalance",
      "type": "event"
    },
    {
      "anonymous": false,
      "inputs": [
        {
          "indexed": true,
          "internalType": "uint256",
          "name": "expectedRate",
          "type": "uint256"
        }
      ],
      "name": "GetKyberExpectedRate",
      "type": "event"
    },
    {
      "anonymous": false,
      "inputs": [
        {
          "indexed": true,
          "internalType": "uint256",
          "name": "repayAmount",
          "type": "uint256"
        }
      ],
      "name": "GetRepayAmount",
      "type": "event"
    },
    {
      "anonymous": false,
      "inputs": [
        {
          "indexed": false,
          "internalType": "uint256[]",
          "name": "minOuts",
          "type": "uint256[]"
        }
      ],
      "name": "GetUniswapMinOuts",
      "type": "event"
    },
    {
      "anonymous": false,
      "inputs": [
        {
          "indexed": false,
          "internalType": "bool",
          "name": "hit",
          "type": "bool"
        }
      ],
      "name": "Hit",
      "type": "event"
    },
    {
      "anonymous": false,
      "inputs": [
        {
          "indexed": true,
          "internalType": "enum TestableFlashloan.Direction",
          "name": "direction",
          "type": "uint8"
        },
        {
          "indexed": true,
          "internalType": "address",
          "name": "token1",
          "type": "address"
        },
        {
          "indexed": true,
          "internalType": "address",
          "name": "token2",
          "type": "address"
        },
        {
          "indexed": false,
          "internalType": "uint256",
          "name": "profit",
          "type": "uint256"
        },
        {
          "indexed": false,
          "internalType": "uint256",
          "name": "date",
          "type": "uint256"
        }
      ],
      "name": "NewArbitrage",
      "type": "event"
    },
    {
      "payable": true,
      "stateMutability": "payable",
      "type": "fallback"
    },
    {
      "constant": false,
      "inputs": [
        {
          "internalType": "address",
          "name": "sender",
          "type": "address"
        },
        {
          "components": [
            {
              "internalType": "address",
              "name": "owner",
              "type": "address"
            },
            {
              "internalType": "uint256",
              "name": "number",
              "type": "uint256"
            }
          ],
          "internalType": "struct Account.Info",
          "name": "account",
          "type": "tuple"
        },
        {
          "internalType": "bytes",
          "name": "data",
          "type": "bytes"
        }
      ],
      "name": "callFunction",
      "outputs": [],
      "payable": false,
      "stateMutability": "nonpayable",
      "type": "function"
    },
    {
      "constant": false,
      "inputs": [
        {
          "internalType": "address",
          "name": "_solo",
          "type": "address"
        },
        {
          "internalType": "uint256",
          "name": "_amount",
          "type": "uint256"
        },
        {
          "internalType": "address",
          "name": "_token1",
          "type": "address"
        },
        {
          "internalType": "address",
          "name": "_token2",
          "type": "address"
        },
        {
          "internalType": "enum TestableFlashloan.Direction",
          "name": "_direction",
          "type": "uint8"
        }
      ],
      "name": "initateFlashLoan",
      "outputs": [],
      "payable": false,
      "stateMutability": "nonpayable",
      "type": "function"
    }
  ],
  "bytecode": "0x60806040523480156200001157600080fd5b5060405162003c2638038062003c2683398181016040526200003791908101906200015b565b836000806101000a81548173ffffffffffffffffffffffffffffffffffffffff021916908373ffffffffffffffffffffffffffffffffffffffff16021790555082600160006101000a81548173ffffffffffffffffffffffffffffffffffffffff021916908373ffffffffffffffffffffffffffffffffffffffff16021790555081600260006101000a81548173ffffffffffffffffffffffffffffffffffffffff021916908373ffffffffffffffffffffffffffffffffffffffff16021790555080600360006101000a81548173ffffffffffffffffffffffffffffffffffffffff021916908373ffffffffffffffffffffffffffffffffffffffff1602179055505050505062000215565b6000815190506200015581620001fb565b92915050565b600080600080608085870312156200017257600080fd5b6000620001828782880162000144565b9450506020620001958782880162000144565b9350506040620001a88782880162000144565b9250506060620001bb8782880162000144565b91505092959194509250565b6000620001d482620001db565b9050919050565b600073ffffffffffffffffffffffffffffffffffffffff82169050919050565b6200020681620001c7565b81146200021257600080fd5b50565b613a0180620002256000396000f3fe6080604052600436106100295760003560e01c80638b4187131461002b578063922c8d8114610054575b005b34801561003757600080fd5b50610052600480360361004d91908101906127cb565b61007d565b005b34801561006057600080fd5b5061007b60048036036100769190810190612832565b611c8c565b005b6100856123a1565b818060200190516100999190810190612913565b905060008160200151905060008260400151905060008273ffffffffffffffffffffffffffffffffffffffff166370a08231306040518263ffffffff1660e01b81526004016100e8919061320c565b60206040518083038186803b15801561010057600080fd5b505afa158015610114573d6000803e3d6000fd5b505050506040513d601f19601f82011682018060405250610138919081019061293c565b9050600061012c42019050817f24e6d40733055aa45fa42bfd1cc4d59d4d8ffec5f8f83bfbb39cae68f8a3497f60405160405180910390a28460000151600381111561018057fe5b7f547d8c1ea7bb950f9326c1f5af34dfed084b832510f8e8ce929e13f4ba0770e360405160405180910390a2600060038111156101b957fe5b856000015160038111156101c957fe5b14806101ef5750600160038111156101dd57fe5b856000015160038111156101ed57fe5b145b8061021457506002600381111561020257fe5b8560000151600381111561021257fe5b145b80610238575060038081111561022657fe5b8560000151600381111561023657fe5b145b610277576040517f08c379a000000000000000000000000000000000000000000000000000000000815260040161026e906133e5565b60405180910390fd5b6000600381111561028457fe5b8560000151600381111561029457fe5b14156107d1578373ffffffffffffffffffffffffffffffffffffffff1663095ea7b36000809054906101000a900473ffffffffffffffffffffffffffffffffffffffff16846040518363ffffffff1660e01b81526004016102f6929190613227565b602060405180830381600087803b15801561031057600080fd5b505af1158015610324573d6000803e3d6000fd5b505050506040513d601f19601f8201168201806040525061034891908101906128ea565b610387576040517f08c379a000000000000000000000000000000000000000000000000000000000815260040161037e90613465565b60405180910390fd5b60008060009054906101000a900473ffffffffffffffffffffffffffffffffffffffff1673ffffffffffffffffffffffffffffffffffffffff1663809a9e558673eeeeeeeeeeeeeeeeeeeeeeeeeeeeeeeeeeeeeeee866040518463ffffffff1660e01b81526004016103fb939291906132a9565b604080518083038186803b15801561041257600080fd5b505afa158015610426573d6000803e3d6000fd5b505050506040513d601f19601f8201168201806040525061044a9190810190612965565b509050807fb72f141705c40babe8f2e3826e109229e9c0b375637456a9b5081d7b49054e8860405160405180910390a26000809054906101000a900473ffffffffffffffffffffffffffffffffffffffff1673ffffffffffffffffffffffffffffffffffffffff16633bba21dc8685846040518463ffffffff1660e01b81526004016104d89392919061334e565b602060405180830381600087803b1580156104f257600080fd5b505af1158015610506573d6000803e3d6000fd5b505050506040513d601f19601f8201168201806040525061052a919081019061293c565b506060600260405190808252806020026020018201604052801561055d5781602001602082028038833980820191505090505b509050600260009054906101000a900473ffffffffffffffffffffffffffffffffffffffff168160008151811061059057fe5b602002602001019073ffffffffffffffffffffffffffffffffffffffff16908173ffffffffffffffffffffffffffffffffffffffff168152505085816001815181106105d857fe5b602002602001019073ffffffffffffffffffffffffffffffffffffffff16908173ffffffffffffffffffffffffffffffffffffffff16815250506060600160009054906101000a900473ffffffffffffffffffffffffffffffffffffffff1673ffffffffffffffffffffffffffffffffffffffff1663d06ca61f47846040518363ffffffff1660e01b815260040161067192919061351b565b60006040518083038186803b15801561068957600080fd5b505afa15801561069d573d6000803e3d6000fd5b505050506040513d6000823e3d601f19601f820116820180604052506106c691908101906128a9565b90507fad7f32c6f267a2d2e6cdf9e716d460dd691564d62fcb700b0f91559171ea27cd816040516106f79190613287565b60405180910390a1600160009054906101000a900473ffffffffffffffffffffffffffffffffffffffff1673ffffffffffffffffffffffffffffffffffffffff16637ff36ab5478360018151811061074b57fe5b60200260200101518530896040518663ffffffff1660e01b8152600401610775949392919061354b565b6000604051808303818588803b15801561078e57600080fd5b505af11580156107a2573d6000803e3d6000fd5b50505050506040513d6000823e3d601f19601f820116820180604052506107cc91908101906128a9565b505050505b600160038111156107de57fe5b856000015160038111156107ee57fe5b1415610d2c578373ffffffffffffffffffffffffffffffffffffffff1663095ea7b3600160009054906101000a900473ffffffffffffffffffffffffffffffffffffffff16846040518363ffffffff1660e01b8152600401610851929190613227565b602060405180830381600087803b15801561086b57600080fd5b505af115801561087f573d6000803e3d6000fd5b505050506040513d601f19601f820116820180604052506108a391908101906128ea565b6108e2576040517f08c379a00000000000000000000000000000000000000000000000000000000081526004016108d990613405565b60405180910390fd5b606060026040519080825280602002602001820160405280156109145781602001602082028038833980820191505090505b509050848160008151811061092557fe5b602002602001019073ffffffffffffffffffffffffffffffffffffffff16908173ffffffffffffffffffffffffffffffffffffffff1681525050600260009054906101000a900473ffffffffffffffffffffffffffffffffffffffff168160018151811061098f57fe5b602002602001019073ffffffffffffffffffffffffffffffffffffffff16908173ffffffffffffffffffffffffffffffffffffffff16815250506060600160009054906101000a900473ffffffffffffffffffffffffffffffffffffffff1673ffffffffffffffffffffffffffffffffffffffff1663d06ca61f85846040518363ffffffff1660e01b8152600401610a2892919061351b565b60006040518083038186803b158015610a4057600080fd5b505afa158015610a54573d6000803e3d6000fd5b505050506040513d6000823e3d601f19601f82011682018060405250610a7d91908101906128a9565b90507fad7f32c6f267a2d2e6cdf9e716d460dd691564d62fcb700b0f91559171ea27cd81604051610aae9190613287565b60405180910390a1600160009054906101000a900473ffffffffffffffffffffffffffffffffffffffff1673ffffffffffffffffffffffffffffffffffffffff166318cbafe58583600181518110610b0257fe5b60200260200101518530886040518663ffffffff1660e01b8152600401610b2d9594939291906135c0565b600060405180830381600087803b158015610b4757600080fd5b505af1158015610b5b573d6000803e3d6000fd5b505050506040513d6000823e3d601f19601f82011682018060405250610b8491908101906128a9565b5060008060009054906101000a900473ffffffffffffffffffffffffffffffffffffffff1673ffffffffffffffffffffffffffffffffffffffff1663809a9e5573eeeeeeeeeeeeeeeeeeeeeeeeeeeeeeeeeeeeeeee89476040518463ffffffff1660e01b8152600401610bf9939291906132a9565b604080518083038186803b158015610c1057600080fd5b505afa158015610c24573d6000803e3d6000fd5b505050506040513d601f19601f82011682018060405250610c489190810190612965565b509050807fb72f141705c40babe8f2e3826e109229e9c0b375637456a9b5081d7b49054e8860405160405180910390a26000809054906101000a900473ffffffffffffffffffffffffffffffffffffffff1673ffffffffffffffffffffffffffffffffffffffff16637a2a04564789846040518463ffffffff1660e01b8152600401610cd59291906132e0565b6020604051808303818588803b158015610cee57600080fd5b505af1158015610d02573d6000803e3d6000fd5b50505050506040513d601f19601f82011682018060405250610d27919081019061293c565b505050505b60026003811115610d3957fe5b85600001516003811115610d4957fe5b1415611372578373ffffffffffffffffffffffffffffffffffffffff1663095ea7b36000809054906101000a900473ffffffffffffffffffffffffffffffffffffffff16846040518363ffffffff1660e01b8152600401610dab929190613227565b602060405180830381600087803b158015610dc557600080fd5b505af1158015610dd9573d6000803e3d6000fd5b505050506040513d601f19601f82011682018060405250610dfd91908101906128ea565b610e3c576040517f08c379a0000000000000000000000000000000000000000000000000000000008152600401610e33906134c5565b60405180910390fd5b60008060009054906101000a900473ffffffffffffffffffffffffffffffffffffffff1673ffffffffffffffffffffffffffffffffffffffff1663809a9e558686866040518463ffffffff1660e01b8152600401610e9c939291906132a9565b604080518083038186803b158015610eb357600080fd5b505afa158015610ec7573d6000803e3d6000fd5b505050506040513d601f19601f82011682018060405250610eeb9190810190612965565b509050807fb72f141705c40babe8f2e3826e109229e9c0b375637456a9b5081d7b49054e8860405160405180910390a260008060009054906101000a900473ffffffffffffffffffffffffffffffffffffffff1673ffffffffffffffffffffffffffffffffffffffff16637409e2eb878688866040518563ffffffff1660e01b8152600401610f7d9493929190613309565b602060405180830381600087803b158015610f9757600080fd5b505af1158015610fab573d6000803e3d6000fd5b505050506040513d601f19601f82011682018060405250610fcf919081019061293c565b9050807f015d9c7e73d9302b00c6428709d16bfc64d864dc4e2312c555c4d43cc4c87fe060405160405180910390a28473ffffffffffffffffffffffffffffffffffffffff1663095ea7b3600160009054906101000a900473ffffffffffffffffffffffffffffffffffffffff16836040518363ffffffff1660e01b815260040161105b929190613227565b602060405180830381600087803b15801561107557600080fd5b505af1158015611089573d6000803e3d6000fd5b505050506040513d601f19601f820116820180604052506110ad91908101906128ea565b6110ec576040517f08c379a00000000000000000000000000000000000000000000000000000000081526004016110e390613425565b60405180910390fd5b6060600260405190808252806020026020018201604052801561111e5781602001602082028038833980820191505090505b509050858160008151811061112f57fe5b602002602001019073ffffffffffffffffffffffffffffffffffffffff16908173ffffffffffffffffffffffffffffffffffffffff1681525050868160018151811061117757fe5b602002602001019073ffffffffffffffffffffffffffffffffffffffff16908173ffffffffffffffffffffffffffffffffffffffff16815250506060600160009054906101000a900473ffffffffffffffffffffffffffffffffffffffff1673ffffffffffffffffffffffffffffffffffffffff1663d06ca61f84846040518363ffffffff1660e01b815260040161121092919061351b565b60006040518083038186803b15801561122857600080fd5b505afa15801561123c573d6000803e3d6000fd5b505050506040513d6000823e3d601f19601f8201168201806040525061126591908101906128a9565b90507fad7f32c6f267a2d2e6cdf9e716d460dd691564d62fcb700b0f91559171ea27cd816040516112969190613287565b60405180910390a1600160009054906101000a900473ffffffffffffffffffffffffffffffffffffffff1673ffffffffffffffffffffffffffffffffffffffff166338ed173984836001815181106112ea57fe5b602002602001015185308a6040518663ffffffff1660e01b81526004016113159594939291906135c0565b600060405180830381600087803b15801561132f57600080fd5b505af1158015611343573d6000803e3d6000fd5b505050506040513d6000823e3d601f19601f8201168201806040525061136c91908101906128a9565b50505050505b60038081111561137e57fe5b8560000151600381111561138e57fe5b14156119d1578373ffffffffffffffffffffffffffffffffffffffff1663095ea7b3600160009054906101000a900473ffffffffffffffffffffffffffffffffffffffff16846040518363ffffffff1660e01b81526004016113f1929190613227565b602060405180830381600087803b15801561140b57600080fd5b505af115801561141f573d6000803e3d6000fd5b505050506040513d601f19601f8201168201806040525061144391908101906128ea565b611482576040517f08c379a0000000000000000000000000000000000000000000000000000000008152600401611479906133c5565b60405180910390fd5b606060026040519080825280602002602001820160405280156114b45781602001602082028038833980820191505090505b50905084816000815181106114c557fe5b602002602001019073ffffffffffffffffffffffffffffffffffffffff16908173ffffffffffffffffffffffffffffffffffffffff1681525050838160018151811061150d57fe5b602002602001019073ffffffffffffffffffffffffffffffffffffffff16908173ffffffffffffffffffffffffffffffffffffffff16815250506060600160009054906101000a900473ffffffffffffffffffffffffffffffffffffffff1673ffffffffffffffffffffffffffffffffffffffff1663d06ca61f85846040518363ffffffff1660e01b81526004016115a692919061351b565b60006040518083038186803b1580156115be57600080fd5b505afa1580156115d2573d6000803e3d6000fd5b505050506040513d6000823e3d601f19601f820116820180604052506115fb91908101906128a9565b90507fad7f32c6f267a2d2e6cdf9e716d460dd691564d62fcb700b0f91559171ea27cd8160405161162c9190613287565b60405180910390a16060600160009054906101000a900473ffffffffffffffffffffffffffffffffffffffff1673ffffffffffffffffffffffffffffffffffffffff166338ed1739868460018151811061168257fe5b60200260200101518630896040518663ffffffff1660e01b81526004016116ad9594939291906135c0565b600060405180830381600087803b1580156116c757600080fd5b505af11580156116db573d6000803e3d6000fd5b505050506040513d6000823e3d601f19601f8201168201806040525061170491908101906128a9565b905060008160008151811061171557fe5b60200260200101519050807f015d9c7e73d9302b00c6428709d16bfc64d864dc4e2312c555c4d43cc4c87fe060405160405180910390a28673ffffffffffffffffffffffffffffffffffffffff1663095ea7b36000809054906101000a900473ffffffffffffffffffffffffffffffffffffffff16836040518363ffffffff1660e01b81526004016117a8929190613227565b602060405180830381600087803b1580156117c257600080fd5b505af11580156117d6573d6000803e3d6000fd5b505050506040513d601f19601f820116820180604052506117fa91908101906128ea565b611839576040517f08c379a000000000000000000000000000000000000000000000000000000000815260040161183090613485565b60405180910390fd5b60008060009054906101000a900473ffffffffffffffffffffffffffffffffffffffff1673ffffffffffffffffffffffffffffffffffffffff1663809a9e55898b856040518463ffffffff1660e01b8152600401611899939291906132a9565b604080518083038186803b1580156118b057600080fd5b505afa1580156118c4573d6000803e3d6000fd5b505050506040513d601f19601f820116820180604052506118e89190810190612965565b509050807fb72f141705c40babe8f2e3826e109229e9c0b375637456a9b5081d7b49054e8860405160405180910390a26000809054906101000a900473ffffffffffffffffffffffffffffffffffffffff1673ffffffffffffffffffffffffffffffffffffffff16637409e2eb89848c856040518563ffffffff1660e01b81526004016119789493929190613309565b602060405180830381600087803b15801561199257600080fd5b505af11580156119a6573d6000803e3d6000fd5b505050506040513d601f19601f820116820180604052506119ca919081019061293c565b5050505050505b60008473ffffffffffffffffffffffffffffffffffffffff166370a08231306040518263ffffffff1660e01b8152600401611a0c919061320c565b60206040518083038186803b158015611a2457600080fd5b505afa158015611a38573d6000803e3d6000fd5b505050506040513d601f19601f82011682018060405250611a5c919081019061293c565b9050600086606001519050817f67582069435f8f8f3905d9e72e86eeec54199779a70fc275d67712c5c06b82ad60405160405180910390a2807f71f13a74ceeef12b195797c22d39486aa2cef79b1a5e66259f3ad872542baca860405160405180910390a286606001518211611b07576040517f08c379a0000000000000000000000000000000000000000000000000000000008152600401611afe906133a5565b60405180910390fd5b60008760600151830390508673ffffffffffffffffffffffffffffffffffffffff1663a9059cbb600360009054906101000a900473ffffffffffffffffffffffffffffffffffffffff16836040518363ffffffff1660e01b8152600401611b6f929190613227565b602060405180830381600087803b158015611b8957600080fd5b505af1158015611b9d573d6000803e3d6000fd5b505050506040513d601f19601f82011682018060405250611bc191908101906128ea565b611c00576040517f08c379a0000000000000000000000000000000000000000000000000000000008152600401611bf7906134a5565b60405180910390fd5b876040015173ffffffffffffffffffffffffffffffffffffffff16886020015173ffffffffffffffffffffffffffffffffffffffff1689600001516003811115611c4657fe5b7f11e944aca3539ba70760461542172892c68b0d8afb8f8eaf5aa7371d240ab5f28442604051611c77929190613597565b60405180910390a45050505050505050505050565b6000611c988685611f28565b90506000611ca5866120da565b90508473ffffffffffffffffffffffffffffffffffffffff1663095ea7b388836040518363ffffffff1660e01b8152600401611ce2929190613227565b602060405180830381600087803b158015611cfc57600080fd5b505af1158015611d10573d6000803e3d6000fd5b505050506040513d601f19601f82011682018060405250611d3491908101906128ea565b5060606003604051908082528060200260200182016040528015611d7257816020015b611d5f612400565b815260200190600190039081611d575790505b509050611d7f83886120f7565b81600081518110611d8c57fe5b6020026020010181905250611e166040518060800160405280866003811115611db157fe5b81526020018873ffffffffffffffffffffffffffffffffffffffff1681526020018773ffffffffffffffffffffffffffffffffffffffff16815260200184815250604051602001611e0291906134e5565b6040516020818303038152906040526121b0565b81600181518110611e2357fe5b6020026020010181905250611e38838361225a565b81600281518110611e4557fe5b602002602001018190525060606001604051908082528060200260200182016040528015611e8d57816020015b611e7a61246c565b815260200190600190039081611e725790505b509050611e98612313565b81600081518110611ea557fe5b60200260200101819052508873ffffffffffffffffffffffffffffffffffffffff1663a67a6a4582846040518363ffffffff1660e01b8152600401611eeb929190613250565b600060405180830381600087803b158015611f0557600080fd5b505af1158015611f19573d6000803e3d6000fd5b50505050505050505050505050565b60008083905060008173ffffffffffffffffffffffffffffffffffffffff1663295c39a56040518163ffffffff1660e01b815260040160206040518083038186803b158015611f7657600080fd5b505afa158015611f8a573d6000803e3d6000fd5b505050506040513d601f19601f82011682018060405250611fae919081019061293c565b9050600080600090505b82811015612098578373ffffffffffffffffffffffffffffffffffffffff1663062bd3e9826040518263ffffffff1660e01b8152600401611ff99190613500565b60206040518083038186803b15801561201157600080fd5b505afa158015612025573d6000803e3d6000fd5b505050506040513d601f19601f8201168201806040525061204991908101906127a2565b91508573ffffffffffffffffffffffffffffffffffffffff168273ffffffffffffffffffffffffffffffffffffffff16141561208b57809450505050506120d4565b8080600101915050611fb8565b506040517f08c379a00000000000000000000000000000000000000000000000000000000081526004016120cb90613445565b60405180910390fd5b92915050565b60006120f060028361234c90919063ffffffff16565b9050919050565b6120ff61249c565b6040518061010001604052806001600881111561211857fe5b81526020016000815260200160405180608001604052806000151581526020016000600181111561214557fe5b81526020016000600181111561215757fe5b8152602001858152508152602001848152602001600081526020013073ffffffffffffffffffffffffffffffffffffffff1681526020016000815260200160405180602001604052806000815250815250905092915050565b6121b861249c565b6040518061010001604052806008808111156121d057fe5b8152602001600081526020016040518060800160405280600015158152602001600060018111156121fd57fe5b81526020016000600181111561220f57fe5b81526020016000815250815260200160008152602001600081526020013073ffffffffffffffffffffffffffffffffffffffff16815260200160008152602001838152509050919050565b61226261249c565b6040518061010001604052806000600881111561227b57fe5b8152602001600081526020016040518060800160405280600115158152602001600060018111156122a857fe5b8152602001600060018111156122ba57fe5b8152602001858152508152602001848152602001600081526020013073ffffffffffffffffffffffffffffffffffffffff1681526020016000815260200160405180602001604052806000815250815250905092915050565b61231b612508565b60405180604001604052803073ffffffffffffffffffffffffffffffffffffffff1681526020016001815250905090565b600080828401905083811015612397576040517f08c379a000000000000000000000000000000000000000000000000000000000815260040161238e90613385565b60405180910390fd5b8091505092915050565b6040518060800160405280600060038111156123b957fe5b8152602001600073ffffffffffffffffffffffffffffffffffffffff168152602001600073ffffffffffffffffffffffffffffffffffffffff168152602001600081525090565b6040518061010001604052806000600881111561241957fe5b81526020016000815260200161242d612538565b81526020016000815260200160008152602001600073ffffffffffffffffffffffffffffffffffffffff16815260200160008152602001606081525090565b6040518060400160405280600073ffffffffffffffffffffffffffffffffffffffff168152602001600081525090565b604051806101000160405280600060088111156124b557fe5b8152602001600081526020016124c9612538565b81526020016000815260200160008152602001600073ffffffffffffffffffffffffffffffffffffffff16815260200160008152602001606081525090565b6040518060400160405280600073ffffffffffffffffffffffffffffffffffffffff168152602001600081525090565b60405180608001604052806000151581526020016000600181111561255957fe5b81526020016000600181111561256b57fe5b8152602001600081525090565b60008135905061258781613969565b92915050565b60008151905061259c81613969565b92915050565b600082601f8301126125b357600080fd5b81516125c66125c182613647565b61361a565b915081818352602084019350602081019050838560208402820111156125eb57600080fd5b60005b8381101561261b5781612601888261278d565b8452602084019350602083019250506001810190506125ee565b5050505092915050565b60008151905061263481613980565b92915050565b600082601f83011261264b57600080fd5b813561265e6126598261366f565b61361a565b9150808252602083016020830185838301111561267a57600080fd5b6126858382846138e2565b50505092915050565b60008135905061269d81613997565b92915050565b6000815190506126b281613997565b92915050565b6000608082840312156126ca57600080fd5b6126d4608061361a565b905060006126e4848285016126a3565b60008301525060206126f88482850161258d565b602083015250604061270c8482850161258d565b60408301525060606127208482850161278d565b60608301525092915050565b60006040828403121561273e57600080fd5b612748604061361a565b9050600061275884828501612578565b600083015250602061276c84828501612778565b60208301525092915050565b600081359050612787816139a7565b92915050565b60008151905061279c816139a7565b92915050565b6000602082840312156127b457600080fd5b60006127c28482850161258d565b91505092915050565b6000806000608084860312156127e057600080fd5b60006127ee86828701612578565b93505060206127ff8682870161272c565b925050606084013567ffffffffffffffff81111561281c57600080fd5b6128288682870161263a565b9150509250925092565b600080600080600060a0868803121561284a57600080fd5b600061285888828901612578565b955050602061286988828901612778565b945050604061287a88828901612578565b935050606061288b88828901612578565b925050608061289c8882890161268e565b9150509295509295909350565b6000602082840312156128bb57600080fd5b600082015167ffffffffffffffff8111156128d557600080fd5b6128e1848285016125a2565b91505092915050565b6000602082840312156128fc57600080fd5b600061290a84828501612625565b91505092915050565b60006080828403121561292557600080fd5b6000612933848285016126b8565b91505092915050565b60006020828403121561294e57600080fd5b600061295c8482850161278d565b91505092915050565b6000806040838503121561297857600080fd5b60006129868582860161278d565b92505060206129978582860161278d565b9150509250929050565b60006129ad8383612a0c565b60208301905092915050565b60006129c58383613062565b905092915050565b60006129d983836131bf565b60408301905092915050565b60006129f183836131ee565b60208301905092915050565b612a0681613840565b82525050565b612a15816137ac565b82525050565b612a24816137ac565b82525050565b6000612a35826136db565b612a3f8185613746565b9350612a4a8361369b565b8060005b83811015612a7b578151612a6288826129a1565b9750612a6d83613712565b925050600181019050612a4e565b5085935050505092915050565b6000612a93826136e6565b612a9d8185613757565b935083602082028501612aaf856136ab565b8060005b85811015612aeb5784840389528151612acc85826129b9565b9450612ad78361371f565b925060208a01995050600181019050612ab3565b50829750879550505050505092915050565b6000612b08826136f1565b612b128185613768565b9350612b1d836136bb565b8060005b83811015612b4e578151612b3588826129cd565b9750612b408361372c565b925050600181019050612b21565b5085935050505092915050565b6000612b66826136fc565b612b708185613779565b9350612b7b836136cb565b8060005b83811015612bac578151612b9388826129e5565b9750612b9e83613739565b925050600181019050612b7f565b5085935050505092915050565b612bc2816137be565b82525050565b6000612bd382613707565b612bdd818561378a565b9350612bed8185602086016138f1565b612bf681613924565b840191505092915050565b612c0a81613852565b82525050565b612c1981613876565b82525050565b612c2881613888565b82525050565b612c378161389a565b82525050565b612c46816138ac565b82525050565b6000612c59601b8361379b565b91507f536166654d6174683a206164646974696f6e206f766572666c6f7700000000006000830152602082019050919050565b6000612c9960248361379b565b91507f4e6f7420656e6f7567682066756e647320746f2072657061792064796478206c60008301527f6f616e21000000000000000000000000000000000000000000000000000000006020830152604082019050919050565b6000612cff60398361379b565b91507f436f756c64206e6f7420617070726f7665212028556e6973776170546f6b656e60008301527f4b796265722042757920455448206f6e20556e697377617029000000000000006020830152604082019050919050565b6000612d6560118361379b565b91507f556e6b6e6f776e20646972656374696f6e0000000000000000000000000000006000830152602082019050919050565b6000612da560368361379b565b91507f436f756c64206e6f7420617070726f7665212028556e6973776170546f4b796260008301527f65722042757920455448206f6e20556e697377617029000000000000000000006020830152604082019050919050565b6000612e0b603d8361379b565b91507f436f756c64206e6f7420617070726f76652120284b79626572546f6b656e556e60008301527f69737761702053656c6c20544f4b454e32206f6e20556e6973776170290000006020830152604082019050919050565b6000612e7160248361379b565b91507f4e6f206d61726b6574496420666f756e6420666f722070726f7669646564207460008301527f6f6b656e000000000000000000000000000000000000000000000000000000006020830152604082019050919050565b6000612ed760348361379b565b91507f436f756c64206e6f7420617070726f76652120284b79626572546f556e69737760008301527f61702042757920455448206f6e204b79626572290000000000000000000000006020830152604082019050919050565b6000612f3d603a8361379b565b91507f436f756c64206e6f7420617070726f7665212028556e6973776170546f6b656e60008301527f4b796265722053656c6c20546f6b656e206f6e204b79626572290000000000006020830152604082019050919050565b6000612fa360238361379b565b91507f436f756c64206e6f74207472616e73666572206261636b207468652070726f6660008301527f69742100000000000000000000000000000000000000000000000000000000006020830152604082019050919050565b6000613009603a8361379b565b91507f436f756c64206e6f7420617070726f76652120284b79626572546f6b656e556e60008301527f69737761702042757920544f4b454e32206f6e204b79626572290000000000006020830152604082019050919050565b60006101608301600083015161307b6000860182612c10565b50602083015161308e60208601826131ee565b5060408301516130a1604086018261316a565b5060608301516130b460c08601826131ee565b5060808301516130c760e08601826131ee565b5060a08301516130db610100860182612a0c565b5060c08301516130ef6101208601826131ee565b5060e08301518482036101408601526131088282612bc8565b9150508091505092915050565b60808201600082015161312b6000850182612c3d565b50602082015161313e6020850182612a0c565b5060408201516131516040850182612a0c565b50606082015161316460608501826131ee565b50505050565b6080820160008201516131806000850182612bb9565b5060208201516131936020850182612c1f565b5060408201516131a66040850182612c2e565b5060608201516131b960608501826131ee565b50505050565b6040820160008201516131d56000850182612a0c565b5060208201516131e860208501826131ee565b50505050565b6131f781613836565b82525050565b61320681613836565b82525050565b600060208201905061322160008301846129fd565b92915050565b600060408201905061323c6000830185612a1b565b61324960208301846131fd565b9392505050565b6000604082019050818103600083015261326a8185612afd565b9050818103602083015261327e8184612a88565b90509392505050565b600060208201905081810360008301526132a18184612b5b565b905092915050565b60006060820190506132be6000830186612c01565b6132cb6020830185612c01565b6132d860408301846131fd565b949350505050565b60006040820190506132f56000830185612c01565b61330260208301846131fd565b9392505050565b600060808201905061331e6000830187612c01565b61332b60208301866131fd565b6133386040830185612c01565b61334560608301846131fd565b95945050505050565b60006060820190506133636000830186612c01565b61337060208301856131fd565b61337d60408301846131fd565b949350505050565b6000602082019050818103600083015261339e81612c4c565b9050919050565b600060208201905081810360008301526133be81612c8c565b9050919050565b600060208201905081810360008301526133de81612cf2565b9050919050565b600060208201905081810360008301526133fe81612d58565b9050919050565b6000602082019050818103600083015261341e81612d98565b9050919050565b6000602082019050818103600083015261343e81612dfe565b9050919050565b6000602082019050818103600083015261345e81612e64565b9050919050565b6000602082019050818103600083015261347e81612eca565b9050919050565b6000602082019050818103600083015261349e81612f30565b9050919050565b600060208201905081810360008301526134be81612f96565b9050919050565b600060208201905081810360008301526134de81612ffc565b9050919050565b60006080820190506134fa6000830184613115565b92915050565b600060208201905061351560008301846131fd565b92915050565b600060408201905061353060008301856131fd565b81810360208301526135428184612a2a565b90509392505050565b600060808201905061356060008301876131fd565b81810360208301526135728186612a2a565b905061358160408301856129fd565b61358e60608301846131fd565b95945050505050565b60006040820190506135ac60008301856131fd565b6135b960208301846131fd565b9392505050565b600060a0820190506135d560008301886131fd565b6135e260208301876131fd565b81810360408301526135f48186612a2a565b905061360360608301856129fd565b61361060808301846131fd565b9695505050505050565b6000604051905081810181811067ffffffffffffffff8211171561363d57600080fd5b8060405250919050565b600067ffffffffffffffff82111561365e57600080fd5b602082029050602081019050919050565b600067ffffffffffffffff82111561368657600080fd5b601f19601f8301169050602081019050919050565b6000819050602082019050919050565b6000819050602082019050919050565b6000819050602082019050919050565b6000819050602082019050919050565b600081519050919050565b600081519050919050565b600081519050919050565b600081519050919050565b600081519050919050565b6000602082019050919050565b6000602082019050919050565b6000602082019050919050565b6000602082019050919050565b600082825260208201905092915050565b600082825260208201905092915050565b600082825260208201905092915050565b600082825260208201905092915050565b600082825260208201905092915050565b600082825260208201905092915050565b60006137b782613816565b9050919050565b60008115159050919050565b60008190506137d882613935565b919050565b60008190506137eb82613942565b919050565b60008190506137fe8261394f565b919050565b60008190506138118261395c565b919050565b600073ffffffffffffffffffffffffffffffffffffffff82169050919050565b6000819050919050565b600061384b826138be565b9050919050565b600061385d82613864565b9050919050565b600061386f82613816565b9050919050565b6000613881826137ca565b9050919050565b6000613893826137dd565b9050919050565b60006138a5826137f0565b9050919050565b60006138b782613803565b9050919050565b60006138c9826138d0565b9050919050565b60006138db82613816565b9050919050565b82818337600083830152505050565b60005b8381101561390f5780820151818401526020810190506138f4565b8381111561391e576000848401525b50505050565b6000601f19601f8301169050919050565b6009811061393f57fe5b50565b6002811061394c57fe5b50565b6002811061395957fe5b50565b6004811061396657fe5b50565b613972816137ac565b811461397d57600080fd5b50565b613989816137be565b811461399457600080fd5b50565b600481106139a457600080fd5b50565b6139b081613836565b81146139bb57600080fd5b5056fea365627a7a72315820cde70c02941ac7280b2173dd5c87b1e7998f7546c9f5c1b666ab42f4de600d3e6c6578706572696d656e74616cf564736f6c63430005100040",
  "source": "pragma solidity ^0.5.0;\npragma experimental ABIEncoderV2;\n\nimport \"@studydefi/money-legos/dydx/contracts/DydxFlashloanBase.sol\";\nimport \"@studydefi/money-legos/dydx/contracts/ICallee.sol\";\nimport {KyberNetworkProxy as IKyberNetworkProxy} from \"@studydefi/money-legos/kyber/contracts/KyberNetworkProxy.sol\";\n\nimport \"@openzeppelin/contracts/token/ERC20/IERC20.sol\";\nimport \"./IUniswapV2Router02.sol\";\nimport \"./IWeth.sol\";\n\ncontract TestableFlashloan is ICallee, DydxFlashloanBase {\n  enum Direction {KyberToUniswap, UniswapToKyber, KyberTokenUniswap, UniswapTokenKyber}\n\n  struct ArbInfo {\n    Direction direction;\n    address token1;\n    address token2;\n    uint256 repayAmount;\n  }\n\n  // for debugging\n  event Hit(bool hit);\n  event GetDirection(Direction indexed direction);\n  event GetKyberExpectedRate(uint256 indexed expectedRate);\n  event GetUniswapMinOuts(uint256[] minOuts);\n  event GetBalanceSrc(uint256 indexed balance);\n  event GetBalanceDest(uint256 indexed balance);\n  event GetFinalBalance(uint256 indexed balance);\n  event GetRepayAmount(uint256 indexed repayAmount);\n  event NewArbitrage(Direction indexed direction, address indexed token1, address indexed token2, uint256 profit, uint256 date);\n\n  IKyberNetworkProxy kyber;\n  IUniswapV2Router02 uniswap;\n  IWeth weth;\n\n  address beneficiary;\n  address constant KYBER_ETH_ADDRESS = 0xEeeeeEeeeEeEeeEeEeEeeEEEeeeeEeeeeeeeEEeE;\n\n  constructor(\n    address kyberAddress,\n    address uniswapAddress,\n    address wethAddress,\n    address beneficiaryAddress\n  ) public {\n    kyber = IKyberNetworkProxy(kyberAddress);\n    uniswap = IUniswapV2Router02(uniswapAddress);\n    weth = IWeth(wethAddress);\n    beneficiary = beneficiaryAddress;\n  }\n\n  // This is the function that will be called postLoan\n  // i.e. Encode the logic to handle your flashloaned funds here\n  function callFunction(\n    address sender,\n    Account.Info memory account,\n    bytes memory data\n  ) public {\n    ArbInfo memory arbInfo = abi.decode(data, (ArbInfo));\n    IERC20 token1 = IERC20(arbInfo.token1);\n    IERC20 token2 = IERC20(arbInfo.token2);\n\n    uint256 balanceSrc = token1.balanceOf(address(this));\n    uint256 deadline = block.timestamp + 300; // add 300 millisec buffer time just in case it exceeds trading deadline\n\n    // trigger\n    emit GetBalanceSrc(balanceSrc);\n    emit GetDirection(arbInfo.direction);\n\n    require(\n      arbInfo.direction == Direction.KyberToUniswap ||\n        arbInfo.direction == Direction.UniswapToKyber ||\n        arbInfo.direction == Direction.KyberTokenUniswap ||\n        arbInfo.direction == Direction.UniswapTokenKyber,\n      \"Unknown direction\"\n    );\n\n    if (arbInfo.direction == Direction.KyberToUniswap) {\n      // Buy ETH on Kyber\n      require(token1.approve(address(kyber), balanceSrc), \"Could not approve! (KyberToUniswap Buy ETH on Kyber)\");\n      (uint256 expectedRate, ) = kyber.getExpectedRate(token1, IERC20(KYBER_ETH_ADDRESS), balanceSrc);\n      emit GetKyberExpectedRate(expectedRate);\n      kyber.swapTokenToEther(token1, balanceSrc, expectedRate);\n\n      // Sell ETH on Uniswap\n      address[] memory path = new address[](2);\n      path[0] = address(weth);\n      path[1] = address(token1);\n      uint256[] memory minOuts = uniswap.getAmountsOut(address(this).balance, path);\n      emit GetUniswapMinOuts(minOuts);\n      uniswap.swapExactETHForTokens.value(address(this).balance)(minOuts[1], path, address(this), deadline);\n    }\n\n    if (arbInfo.direction == Direction.UniswapToKyber) {\n      // Buy ETH on Uniswap\n      require(token1.approve(address(uniswap), balanceSrc), \"Could not approve! (UniswapToKyber Buy ETH on Uniswap)\");\n      address[] memory path = new address[](2);\n      path[0] = address(token1);\n      path[1] = address(weth);\n      uint256[] memory minOuts = uniswap.getAmountsOut(balanceSrc, path);\n      emit GetUniswapMinOuts(minOuts);\n      uniswap.swapExactTokensForETH(balanceSrc, minOuts[1], path, address(this), deadline);\n\n      // Sell ETH on Kyber\n      (uint256 expectedRate, ) = kyber.getExpectedRate(IERC20(KYBER_ETH_ADDRESS), token1, address(this).balance);\n      emit GetKyberExpectedRate(expectedRate);\n      kyber.swapEtherToToken.value(address(this).balance)(token1, expectedRate);\n    }\n\n    if (arbInfo.direction == Direction.KyberTokenUniswap) {\n      // Buy TOKEN2 on Kyber\n      require(token1.approve(address(kyber), balanceSrc), \"Could not approve! (KyberTokenUniswap Buy TOKEN2 on Kyber)\");\n      (uint256 expectedRate, ) = kyber.getExpectedRate(token1, token2, balanceSrc);\n      emit GetKyberExpectedRate(expectedRate);\n      uint256 balanceDest = kyber.swapTokenToToken(token1, balanceSrc, token2, expectedRate); // switched to swaptoken\n      emit GetBalanceDest(balanceDest);\n\n      // Sell TOKEN2 on Uniswap\n      // token approve needed for 2nd token on token to token exchange\n      require(token2.approve(address(uniswap), balanceDest), \"Could not approve! (KyberTokenUniswap Sell TOKEN2 on Uniswap)\");\n      address[] memory path = new address[](2);\n      path[0] = address(token2);\n      path[1] = address(token1);\n      uint256[] memory minOuts = uniswap.getAmountsOut(balanceDest, path);\n      emit GetUniswapMinOuts(minOuts);\n      uniswap.swapExactTokensForTokens(balanceDest, minOuts[1], path, address(this), deadline);\n    }\n\n    if (arbInfo.direction == Direction.UniswapTokenKyber) {\n      // Buy TOKEN2 on Uniswap\n      require(token1.approve(address(uniswap), balanceSrc), \"Could not approve! (UniswapTokenKyber Buy ETH on Uniswap)\");\n      address[] memory path = new address[](2);\n      path[0] = address(token1);\n      path[1] = address(token2);\n      uint256[] memory minOuts = uniswap.getAmountsOut(balanceSrc, path);\n      emit GetUniswapMinOuts(minOuts);\n      uint256[] memory amounts = uniswap.swapExactTokensForTokens(balanceSrc, minOuts[1], path, address(this), deadline);\n\n      // Sell TOKEN2 on Kyber\n      uint256 balanceDest = amounts[0];\n      emit GetBalanceDest(balanceDest);\n\n      require(token2.approve(address(kyber), balanceDest), \"Could not approve! (UniswapTokenKyber Sell Token on Kyber)\");\n      (uint256 expectedRate, ) = kyber.getExpectedRate(token2, token1, balanceDest);\n      emit GetKyberExpectedRate(expectedRate);\n      kyber.swapTokenToToken(token2, balanceDest, token1, expectedRate);\n    }\n\n    uint256 balance = token1.balanceOf(address(this));\n    uint256 repayAmount = arbInfo.repayAmount;\n    emit GetFinalBalance(balance);\n    emit GetRepayAmount(repayAmount);\n\n    require(balance > arbInfo.repayAmount, \"Not enough funds to repay dydx loan!\");\n\n    uint256 profit = balance - arbInfo.repayAmount;\n    require(token1.transfer(beneficiary, profit), \"Could not transfer back the profit!\");\n\n    emit NewArbitrage(arbInfo.direction, arbInfo.token1, arbInfo.token2, profit, now);\n  }\n\n  function initateFlashLoan(\n    address _solo,\n    uint256 _amount,\n    address _token1,\n    address _token2,\n    Direction _direction\n  ) external {\n    // Get marketId from token address\n    uint256 marketId = _getMarketIdFromTokenAddress(_solo, _token1);\n\n    // Calculate repay amount (_amount + (2 wei))\n    // Approve transfer from\n    uint256 repayAmount = _getRepaymentAmountInternal(_amount);\n    IERC20(_token1).approve(_solo, repayAmount);\n\n    // 1. Withdraw $\n    // 2. Call callFunction(...)\n    // 3. Deposit back $\n    Actions.ActionArgs[] memory operations = new Actions.ActionArgs[](3);\n\n    operations[0] = _getWithdrawAction(marketId, _amount);\n    operations[1] = _getCallAction(\n      // Encode MyCustomData for callFunction\n      abi.encode(ArbInfo({direction: _direction, token1: _token1, token2: _token2, repayAmount: repayAmount}))\n    );\n    operations[2] = _getDepositAction(marketId, repayAmount);\n\n    Account.Info[] memory accountInfos = new Account.Info[](1);\n    accountInfos[0] = _getAccountInfo();\n\n    ISoloMargin(_solo).operate(accountInfos, operations);\n  }\n\n  function() external payable {}\n}\n",
  "sourcePath": "/home/min/Projects/lx/src/github.com/ilovelili/flashloan/contracts/TestableFlashloan.sol",
  "compiler": {
    "name": "solc",
    "version": "0.5.16+commit.9c3226ce.Emscripten.clang"
  },
  "schemaVersion": "3.1.0",
  "updatedAt": "2020-10-21T09:26:38.815Z",
  "networkType": "ethereum",
  "devdoc": {
    "methods": {}
  },
  "userdoc": {
    "methods": {}
  }
}